:020000040000FA
:06000000C5EF14F0120030
:020006001200E6
:06000800E9EF12F0120006
:02000E003A2A8C
:08001000501A941A701A3A2AE2
:060018003BEF13F01200A3
:02001E000300DD
:100020004B2A0000B500000004000000482A000030
:10003000C2000000030000003C2A0000880000000D
:040040000C000000B0
:0C004400120000017D07120000017E0781
:100050001200D9CFE6FFE1CFD9FF080EE126020E4C
:100060007CC0DBFF010E7BC0DBFF82C0F6FF83C0DC
:10007000F7FFF62A000EF7220800F55000017D2553
:10008000106E116A10BE1168D89010361136270E06
:1000900010261E0E1122040E10C0DBFF050E11C02B
:1000A000DBFFDF6ADFCF10F082C0F6FF83C0F7FF0F
:1000B0000800F550E76E1018E8AE02D0E73402D021
:1000C000E750105C5BE2040EDBCFF6FF050EDBCFE2
:1000D000F7FFF62A000EF7220800F5CF10F0116A9C
:1000E00010BE11680C0E1102F3CF11F01002F3CF05
:1000F00010F0F4501126AA0E1026280E1122060E1A
:1001000010C0DBFF070E11C0DBFF060EDBCFF6FFD2
:10011000070EDBCFF7FF060EF626000EF7220900CA
:10012000F5CF10F00800F5CF11F0010EDBCFE6FFA0
:10013000020EDBCFE6FF030EDBCFE6FF040EDBCFC4
:10014000F6FF050EDBCFF7FF0800F550E66E04D092
:1001500011C0FAFF1050F96EFBDFE552E552E5528F
:10016000E552010EDB2AD950040FE96EDACFEAFF1F
:10017000020EEE26000EEF22DF2A94D7080EE15C75
:1001800002E2E16AE552E16EE552E7CFD9FF1200E3
:10019000120000017D2B120000017E2B1200D9CF2E
:1001A000E6FFE1CFD9FF080EE126020E7CC0DBFF9F
:1001B00082C0F6FF83C0F7FF0800F50400017B252D
:1001C000E76E010EE7CFDBFF82C0F6FF83C0F7FFCB
:1001D000F62A000EF7220800F5507D25106E116AF0
:1001E00010BE1168D89010361136270E10261E0E3C
:1001F0001122040E10C0DBFF050E11C0DBFFDF6A09
:10020000DFCF10F082C0F6FF83C0F7FF0800F55083
:10021000E76E1018E8AE02D0E73402D0E750105C69
:100220005BE2040EDBCFF6FF050EDBCFF7FFF62A0D
:10023000000EF7220800F5CF10F0116A10BE116809
:100240000C0E1102F3CF11F01002F3CF10F0F450A6
:100250001126AA0E1026280E1122060E10C0DBFF52
:10026000070E11C0DBFF060EDBCFF6FF070EDBCF5C
:10027000F7FF060EF626000EF7220900F5CF10F064
:100280000800F5CF11F0010EDBCFE6FF020EDBCF49
:10029000E6FF030EDBCFE6FF040EDBCFF6FF050E15
:1002A000DBCFF7FF0800F550E66E04D011C0FAFF6F
:1002B0001050F96EFBDFE552E552E552E552010EB2
:1002C000DB06D950040FE96EDACFEAFF020EEE5ECC
:1002D000000EEF5ADF2A94D7080EE15C02E2E16AD1
:1002E000E552E16EE552E7CFD9FF120000017F6BC6
:1002F0007D5110E0010E7F6F82C0F6FF83C0F7FFD3
:10030000020EF626000EF7220800F5047D5D02E1DC
:10031000020E7F6F806B7E510CE0010E806F82C0F9
:10032000F6FF83C0F7FF0800F5047E5D02E1020ED0
:10033000806F030E7F03F3508025816F1200D9CFA9
:10034000E6FFE1CFD9FF020EE12681C010F0116A6D
:1003500010BE1168D89010361136180E1026290ECE
:100360001122FE0EDBCF12F0136A12BE136810507A
:100370001224F66E11501320F76E0800010EF5CF0F
:10038000DBFFDF6ADFCF10F0080EE76E1018E8AE73
:1003900002D0E73402D0E750105C24E2010EDBA06B
:1003A00018D0DFCFF6FFF76AF6BEF768D890F636BA
:1003B000F7362A0EF626290EF7220900F5CF10F09F
:1003C0000800F5CF11F004D011C0FAFF1050F96EFB
:1003D000FBDF010EDBCFF3FFF390F342F3CFDBFF44
:1003E000DF2AD0D782C0F6FF83C0F7FFF62A000EBF
:1003F000F7220800F55000017D25846F856B800B86
:1004000001E08569D89084378537270E84271E0E32
:100410008523020EE15C02E2E16AE552E16EE552FB
:10042000E7CFD9FF1200D9CFE6FFE1CFD9FF030E06
:10043000E12686C0F6FF87C0F7FF0A0EF626000EFB
:10044000F7220900F5CF10F00800F5CF11F004D025
:1004500011C0FAFF1050F96EFBDF48DFE66A6FDF6C
:10046000E552010E7CC0DBFF00017B517E25DF6E73
:1004700084C0F6FF85C0F7FFF62A000EF7220800B9
:10048000F5CF86F0876B86BF87690C0E8703F3CFA5
:1004900087F08603F3CF86F0F4508727AA0E8627CD
:1004A000280E872386C0F6FF87C0F7FF080EF626C2
:1004B000000EF7220900F5CF10F00800F5CF11F07B
:1004C000DECFE6FFDECFE6FFDDCFE6FFDD5284C004
:1004D000F6FF85C0F7FF0800F550E66E04D011C0A6
:1004E000FAFF1050F96EFBDFE552E552E552E55296
:1004F000030EE15C02E2E16AE552E16EE552E7CF0C
:10050000D9FF1200D9CFE6FFE1CFD9FF040EE126D3
:1005100086C0F6FF87C0F7FF0A0EF626000EF72208
:100520000900F5CF10F00800F5CF11F004D011C08C
:10053000FAFF1050F96EFBDFD9DE010EE66EFFDE2A
:10054000E552010E7CC0DBFF00017B517E25DF6E92
:1005500084C0F6FF85C0F7FFF62A000EF7220800D8
:10056000F5CF86F0876B86BF87690C0E8703F3CFC4
:1005700087F08603F3CF86F0F4508727AA0E8627EC
:10058000280E872386C0F6FF87C0F7FF080EF626E1
:10059000000EF7220900F5CF10F00800F5CF11F09A
:1005A000DECFE6FFDECFE6FFDDCFE6FFDD5284C023
:1005B000F6FF85C0F7FF0800F550E66E04D011C0C5
:1005C000FAFF1050F96EFBDFE552E552E552E552B5
:1005D000040EE15C02E2E16AE552E16EE552E7CF2A
:1005E000D9FF120086C0F6FF87C0F7FF040EF6267B
:1005F000000EF7220900F5CF10F00800F5CF11F03A
:10060000010EE66E04D011C0FAFF1050F96EFBDF48
:10061000E552120084C0F6FF85C0F7FFF62A000EEF
:10062000F7220800F5CF86F00001876B86BF876947
:100630000C0E8703F3CF87F08603F3CF86F0F450D8
:100640008727AA0E8627280E872386C0F6FF87C035
:10065000F7FF0A0EF626000EF7220900F5CF10F07C
:100660000800F5CF11F004D011C0FAFF1050F96E58
:10067000FBDF7AC086F00001876B86BF87690C0EAE
:100680008703F3CF87F08603F3CF86F0F4508727F4
:10069000AA0E8627280E872386C0F6FF87C0F7FF9D
:1006A000040EF626000EF7220900F5CF10F0080020
:1006B000F5CF11F0E66804D011C0FAFF1050F96EC2
:1006C000FBDFE552570EE66E290EE66EE66A7BC04A
:1006D000E6FF2BEC09F0E552E552E552E552120037
:1006E0000AEF03F00AEF03F0D9CFE6FFE1CFD9FF1D
:1006F000E552E7CFD9FF1200010E0001726F736B54
:100700001200550EE66E290EE66EE66A7BC0E6FF25
:100710002BEC09F0E552E552E552E5521200D9CF33
:10072000E6FFE1CFD9FF030EE12600013A0EB76FD5
:10073000290EB86FFE0EDB50FF0861E0FE0EDBCF26
:100740007AF0DFDF00017B517E25DF6E010E7CC079
:10075000DBFF82C0F6FF83C0F7FFF62A000EF72208
:100760000800F5507D25846F856B800B01E085695D
:10077000D89084378537270E84271E0E852384C0A2
:10078000F6FF85C0F7FFF62A000EF7220800F5CF26
:1007900086F0876B86BF87690C0E8703F3CF87F0DF
:1007A0008603F3CF86F0F4508727AA0E8627280EFB
:1007B000872386C0F6FF87C0F7FF080EF626000ED7
:1007C000F7220900F5CF10F00800F5CF11F0DECFC9
:1007D000E6FFDECFE6FFDDCFE6FFDD5284C0F6FFA9
:1007E00085C0F7FF0800F550E66E04D011C0FAFF8F
:1007F0001050F96EFBDFE552E552E552E552030E6B
:10080000E15C02E2E16AE552E16EE552E7CFD9FF31
:100810001200D9CFE6FFE1CFD9FFFE0EDBCF82F089
:100820000001836B82BF8369030E8303F3CF83F0E0
:100830008203F3CF82F0F4508327070E82271E0E27
:100840008323FB0EDBCF7BF0FC0EDBCF7CF0570E5F
:10085000E66E290EE66EE66A7BC0E6FF2BEC09F039
:10086000E552E552E552E552E552E7CFD9FF1200D5
:10087000D9CFE6FFE1CFD9FFE652FE0EDBCF82F003
:100880000001836B82BF8369030E8303F3CF83F080
:100890008203F3CF82F0F4508327070E82271E0EC7
:1008A00083237D6B7E6B82C0F6FF83C0F7FFF62A41
:1008B000000EF7220800F5CF84F0856B84BF8569B0
:1008C000D89084378537270E84271E0E8523DF6A4C
:1008D000DFCF10F082C0F6FF83C0F7FF0800F550AD
:1008E000E76E1018E8AE02D0E73402D0E750105C93
:1008F0004BE284C0F6FF85C0F7FFF62A000EF72210
:100900000800F5CF86F0876B86BF87690C0E8703DA
:10091000F3CF87F08603F3CF86F0F4508727AA0E33
:100920008627280E872386C0F6FF87C0F7FF060EAE
:10093000F626000EF7220900F5CF10F00800F5CFDB
:1009400011F0FB0EDBCFE6FFFC0EDBCFE6FFFD0E6A
:10095000DBCFE6FF84C0F6FF85C0F7FF0800F55047
:10096000E66E04D011C0FAFF1050F96EFBDFE552BD
:10097000E552E552E5520001020E8427000E852360
:10098000FB0EDB2ADF2AA4D7E552E552E7CFD9FFD9
:04099000120012003F
:0C099400D9CFE6FFE1CFD9FFE6528198F1
:1009A000010EDF6EDF50000802E2DF06FBD7F00E1B
:1009B0008116FE0EDB500F0B8112FD0EDB50836E95
:1009C000010EDF6EDF50000802E2DF06FBD78188F0
:1009D000010EDF6EDF50000802E2DF06FBD78198D0
:1009E000E552E552E7CFD9FF1200D9CFE6FFE1CFBC
:1009F000D9FFE652C00E0F0139173B6B9316956A6B
:100A00008116836A140EDF6EDF50000802E2DF06F3
:100A1000FBD7818A3F0EE66EE66ABCDFE552E552FF
:100A2000E552E552E7CFD9FF1200D9CFE6FFE1CF7B
:100A3000D9FFE6528198000000000000000000008D
:100A400000000000000000000000F00E8116FE0E05
:100A5000DB500F0B8112FD0EDB50836E0000000097
:100A60000000000000000000000000000000000086
:100A7000818800000000000000000000000000006D
:100A80000000000000008198E552E552E7CFD9FF51
:100A90001200D9CFE6FFE1CFD9FF020EE126000117
:100AA000BF2B0F0EBF17080EBF15DF6E070EBF1549
:100AB000080D010EF3CFDBFFBF5103E0080EBF5D51
:100AC00027E1DF5013E0010EDB504009E66E010E16
:100AD000E66EABDFE552E552B80E0001C011E66EDE
:100AE000010EE66EA2DFE552E55212D0010EDB5098
:100AF0004009E66E020EE66E98DFE552E552B80E4A
:100B00000001C011E66E020EE66E8FDFE552E5527F
:100B1000DF5004E1020E0001C16F03D0010E00019D
:100B2000C16F020EE15C02E2E16AE552E16EE5525C
:100B3000E7CFD9FF1200D9CFE6FFE1CFD9FF020EF0
:100B4000E126FE0EDBCFBFF0FD0EDB50070B0001F0
:100B5000C06F0F0EBF17080EBF15DF6E070EBF1553
:100B6000080D010EF3CFDBFFDF5003E1020EC16F72
:100B700002D0010EC16F010EDB504009E66EC1C00C
:100B8000E6FF53DFE552E552FD0EDB50B809E66E95
:100B9000C1C0E6FF4ADFE552E552020EE15C02E227
:100BA000E16AE552E16EE552E7CFD9FF1200D9CFF5
:100BB000E6FFE1CFD9FF040EE126FE0EDBCFBFF04A
:100BC000FD0EDB50070B0001C06F0F0EBF17080EA4
:100BD000BF15E76E020EE7CFDBFF070EBF15080D4E
:100BE000030EF3CFDBFF020EDB5003E1020EC16FF9
:100BF00002D0010EC16F030EDB504009E66EC1C08A
:100C0000E6FF13DFE552E552FD0EDB50B809E66E54
:100C1000C1C0E6FF0ADFE552E552FC0EDBCFF6FF6E
:100C2000F76AF6BEF7686B0EF6261E0EF72208006E
:100C3000010EF5CFDBFFDF6ADFCF10F0080EE76EA5
:100C40001018E8AE02D0E73402D0E750105C27E27B
:100C5000010EDBCF10F0116A10BE1168030ED890A0
:100C600010361136E806FBE1EB0E10261E0E11229F
:100C7000DFCF12F0136A12BE136810501224F66E02
:100C800011501320F76E0800F550E66E040E0001B7
:100C9000C111E66ECADEE552E552DF2ACDD7F9DE94
:100CA000040EE15C02E2E16AE552E16EE552E7CF53
:100CB000D9FF1200D9CFE6FFE1CFD9FF040EE1261C
:100CC000FE0EDBCFBFF0FD0EDB50070B0001C06F47
:100CD0000F0EBF17080EBF15E76E020EE7CFDBFF42
:100CE000070EBF15080D030EF3CFDBFF020EDB501E
:100CF00003E1020EC16F02D0010EC16F030EDB5083
:100D00004009E66EC1C0E6FF90DEE552E552FD0EF9
:100D1000DB50B809E66EC1C0E6FF87DEE552E5525A
:100D2000FB0EDBCFE9FFFC0EDBCFEAFFEFCF10F0CD
:100D3000000EE76E1018E8AE02D0103403D0E75072
:100D4000D88010544EE2FB0EDBCFE9FFFC0EDBCF68
:100D5000EAFFEFCFF6FFF76AF6BEF7686B0EF626EE
:100D60001E0EF7220800010EF5CFDBFFFB0EDB2A7B
:100D7000FC0E01E3DB2ADF6ADFCF10F0080EE76E1E
:100D80001018E8AE02D0E73402D0E750105C27E23A
:100D9000010EDBCF10F0116A10BE1168030ED8905F
:100DA00010361136E806FBE1EB0E10261E0E11225E
:100DB000DFCF12F0136A12BE136810501224F66EC1
:100DC00011501320F76E0800F550E66E040E000176
:100DD000C111E66E2ADEE552E552DF2ACDD759DE93
:100DE0009FD7040EE15C02E2E16AE552E16EE55252
:100DF000E7CFD9FF1200D9CFE6FFE1CFD9FF020E2E
:100E0000E126FE0EDBCFF6FFF76AF6BEF7686B0E43
:100E1000F6261E0EF7220800010EF5CFDBFFDF6A73
:100E2000DFCF10F0080EE76E1018E8AE02D0E734FE
:100E300002D0E750105C27E2010EDBCF10F0116A00
:100E400010BE1168030ED89010361136E806FBE18B
:100E5000EB0E10261E0E1122DFCF12F0136A12BE07
:100E6000136810501224F66E11501320F76E08000C
:100E7000F550E66E040E0001C111E66ED6DDE552B6
:100E8000E552DF2ACDD705DE020EE15C02E2E16A1F
:100E9000E552E16EE552E7CFD9FF1200D9CFE6FF68
:100EA000E1CFD9FF020EE126FD0EDBCFE9FFFE0EFA
:100EB000DBCFEAFFEFCF10F0000EE76E1018E8AEC0
:100EC00002D0103403D0E750D88010544EE2FD0E0B
:100ED000DBCFE9FFFE0EDBCFEAFFEFCFF6FFF76ACD
:100EE000F6BEF7686B0EF6261E0EF7220800010EFE
:100EF000F5CFDBFFFD0EDB2AFE0E01E3DB2ADF6A06
:100F0000DFCF10F0080EE76E1018E8AE02D0E7341D
:100F100002D0E750105C27E2010EDBCF10F0116A1F
:100F200010BE1168030ED89010361136E806FBE1AA
:100F3000EB0E10261E0E1122DFCF12F0136A12BE26
:100F4000136810501224F66E11501320F76E08002B
:100F5000F550E66E040E0001C111E66E66DDE55245
:100F6000E552DF2ACDD795DD9FD7020EE15C02E284
:0E0F7000E16AE552E16EE552E7CFD9FF1200CB
:020F7E00C00EA3
:100F80000F01391793168A1600010C0EBC6F140E50
:100F9000BD6F060EBE6F1200D9CFE6FFE1CFD9FFBD
:100FA0008A8AF00E8A16FE0EDB508A128A9A000098
:100FB0000000000000000000000000000000000031
:100FC00000000000E552E7CFD9FF1200D9CFE6FFBD
:100FD000E1CFD9FFE652FE0EDB380F0B0F0BE66EAA
:100FE000DBDFE552FE0EDB500F0BE66ED5DFE55280
:100FF000140EDF6EDFCF10F0000EE76E1018E8AEB3
:1010000002D0103403D0E750D880105402E2DF063B
:10101000F1D7E552E552E7CFD9FF1200D9CFE6FF6D
:10102000E1CFD9FFFE0EDB380F0B0F0BE66EB4DFFE
:10103000E552FE0EDB500F0BE66EAEDFE552E552D9
:10104000E7CFD9FF1200D9CFE6FFE1CFD9FFE652B3
:1010500096DF320E00016C6F6D6B00016D3504E29E
:101060006C510008000E6D5502E20000F6D7030E29
:10107000E66E92DFE552140EDF6EDFCF10F0000E49
:10108000E76E1018E8AE02D0103403D0E750D880D5
:10109000105402E2DF06F1D72C0EE66E97DFE55220
:1010A0002C0EE66E93DFE5520C0EE66E8FDFE552F6
:1010B000010EE66E8BDFE552040E00016C6F6D6B66
:1010C00000016D3504E26C510008000E6D5502E21E
:1010D0000000F6D7060EE66E79DFE552E552E552DE
:1010E000E7CFD9FF1200D9CFE6FFE1CFD9FFE65213
:1010F000FD0EDB50140807E2140EF36EFD0EF3CF65
:10110000DBFF140E01D0000EFE0EDB50040807E2D8
:10111000040EF36EFE0EF3CFDBFF040E01D0000EC3
:10112000FE0EDB5002080CE2140E106ED950FD0FBB
:10113000E96EFF0EDA20EA6E1050EF26EF5001D074
:10114000000EFE0EDB50010B010807E1080EF36EE6
:10115000FE0EF3CFDBFF080E06D00C0EF36EFE0E74
:10116000F3CFDBFF0C0EFD0EDB380F0B106EFE0E07
:10117000DBCFE7FF1050E726FE0EE7CFDBFFFD0ECB
:10118000DB98DB9ADB9CDB9EFE0EDB38F00BF00B72
:10119000DF6EFD0EDB50DF26DFCFE6FF17DFE55207
:1011A000E552E552E7CFD9FF1200D9CFE6FFE1CFF4
:1011B000D9FFE6528A88FE0EDBCFE6FF2FDFE5522D
:1011C0008A98140EDF6EDFCF10F0000EE76E101855
:1011D000E8AE02D0103403D0E750D880105402E2B9
:1011E000DF06F1D7E552E552E7CFD9FF1200D9CF9C
:1011F000E6FFE1CFD9FFFD0EDBCFE6FFFE0EDBCF32
:10120000E6FF71DFE552E552FB0EDBCFE9FFFC0E96
:10121000DBCFEAFFEFCF10F0000EE76E1018E8AE5C
:1012200002D0103403D0E750D880105410E2FB0EE7
:10123000DBCFE9FFFC0EDBCFEAFFEF50E66EB5DF58
:10124000E552FB0EDB2AFC0E01E3DB2ADDD7E5527B
:10125000E7CFD9FF1200D9CFE6FFE1CFD9FFFD0ECE
:10126000DBCFE6FFFE0EDBCFE6FF3DDFE552E552CA
:10127000FB0EDBCFF6FFFC0EDBCFF7FF0800F5CF50
:1012800010F0000EE76E1018E8AE02D0103403D054
:10129000E750D880105411E2FB0EDBCFF6FFFC0EB6
:1012A000DBCFF7FF0800F550E66E7FDFE552FB0E5F
:1012B000DB2AFC0E01E3DB2ADBD7E552E7CFD9FFBF
:1012C0001200D9CFE6FFE1CFD9FF050EE126FD0ED2
:1012D000DBCFE6FFFE0EDBCFE6FF05DFE552E55292
:1012E000030EDB6A0A0E106E10C00CF0FC0EDBCF92
:1012F00007F0D3EC14F0020E03C0DBFF0A0E116EF0
:10130000106E10C00CF0FC0EDBCF07F0D3EC14F025
:1013100011C00CF0D3EC14F0010E03C0DBFF640E1F
:10132000106E10C00CF0FC0EDBCF07F0D3EC14F005
:101330000750DF6E040EDB6ADBCF10F0030EE76EA2
:101340001018E8AE02D0E73402D0E750105C18E283
:10135000D9CF10F0DACF11F0040EDBCF12F0136A00
:1013600012BE136810501224E96E11501320EA6E59
:10137000EF50300FE66E19DFE552040EDB2ADCD7A2
:10138000050EE15C02E2E16AE552E16EE552E7CF6B
:10139000D9FF1200010EE66E19DEE552040E0001BF
:1013A0006C6F6D6B00016D3504E26C510008000E2E
:1013B0006D5502E20000F6D712000001BC95BCC0DA
:1013C000E6FF04DEE55212000001BC85BCC0E6FF6A
:1013D000FDDDE55212000001BC93BCC0E6FFF6DD66
:1013E000E55212000001BC83BCC0E6FFEFDDE55210
:1013F00012000001BC91BCC0E6FFE8DDE55212001E
:101400000001BC81BCC0E6FFE1DDE5521200000135
:10141000BD87BDC0E6FFDADDE55212000001BD97D1
:10142000BDC0E6FFD3DDE55212000001BD85BDC0A1
:10143000E6FFCCDDE55212000001BD95BDC0E6FF20
:10144000C5DDE55212000001BE83BEC0E6FFBEDD71
:10145000E55212000001BE93BEC0E6FFB7DDE552C3
:1014600012000001BE81BEC0E6FFB0DDE5521200F1
:0E1470000001BE91BEC0E6FFA9DDE5521200EC
:02147E00D9CFC4
:10148000E6FFE1CFD9FFE552E7CFD9FF1200120006
:10149000D9CFE6FFE1CFD9FF030EE126FE0EDBCF69
:1014A0009FF00001A06B9FBFA069050EA003F3CFC2
:1014B000A0F09F03F3CF9FF0F450A027130E9F27B7
:1014C0001E0EA023A56B9FC0F6FFA0C0F7FFF62A53
:1014D000000EF7220800F5CF10F0116A10BE116857
:1014E000050E1102F3CF11F01002F3CF10F0F450FB
:1014F0001126390E10261E0E1122010E10C0DBFF20
:10150000020E11C0DBFFDF6ADFCF10F09FC0F6FFD5
:10151000A0C0F7FF020EF626000EF7220800F550D5
:10152000E76E1018E8AE02D0E73402D0E750105C46
:101530005BE2010EDBCFF6FF020EDBCFF7FFF62AF0
:10154000000EF7220800F5CFA3F00001A46BA3BFA3
:10155000A4690C0EA403F3CFA4F0A303F3CFA3F06C
:10156000F450A427AA0EA327280EA423A3C0F6FF95
:10157000A4C0F7FF060EF626000EF7220900F5CFED
:1015800010F00800F5CF11F0010EDBCFF6FF020ED0
:10159000DBCFF7FFF626000EF7220900F5CFE6FFB6
:1015A0000900F5CFE6FF0800F5CFE6FF010EDBCF1F
:1015B000F6FF020EDBCFF7FF0800F550E66E04D011
:1015C00011C0FAFF1050F96EFBDFE552E552E5520B
:1015D000E552D950010FE96EDACFEAFF050EEE268B
:1015E000000EEF22DF2A90D7030EE15C02E2E16AEF
:1015F000E552E16EE552E7CFD9FF12000001A55197
:101600001BE19FC0F6FFA0C0F7FFF62A000EF722ED
:101610000800F5CFA1F0A26BA1BFA269050EA2033D
:10162000F3CFA2F0A103F3CFA1F0F450A227390E1B
:10163000A1271E0EA22328D0A3C0F6FFA4C0F7FF47
:101640000A0EF626000EF7220900F5CF10F008006A
:10165000F5CF11F004D011C0FAFF1050F96EFBDF86
:101660009FC0F6FFA0C0F7FF020EF626000EF7227D
:101670000800F5500001A55D03E1A56B52D004D030
:10168000050EA127000EA223A1C0F6FFA2C0F7FFFE
:10169000F62A000EF7220800F5CFA3F00001A46B94
:1016A000A3BFA4690C0EA403F3CFA4F0A303F3CF4C
:1016B000A3F0F450A427AA0EA327280EA423A3C0A6
:1016C000F6FFA4C0F7FF080EF626000EF722090069
:1016D000F5CF10F00800F5CF11F0A1C0F6FFA2C0C1
:1016E000F7FF020EF626000EF7220900F5CFE6FFFF
:1016F0000900F5CFE6FF0800F5CFE6FFA1C0F6FF31
:10170000A2C0F7FF0800F550E66E04D011C0FAFF42
:101710001050F96EFBDFE552E552E552E55200014B
:10172000A52B12009FC0F6FFA0C0F7FF040EF626FF
:10173000000EF7220800F550E66EAADEE552120010
:101740009FC0F6FFA0C0F7FF030EF626000EF7229B
:101750000800F550E66E9CDEE55212000001A5512E
:1017600033E19FC0F6FFA0C0F7FF020EF626000E81
:10177000F7220800F5CF10F09FC0F6FFA0C0F7FFDA
:10178000F62AF7220800F5501024FF0FA16FA26B74
:10179000800B01E0A269050EA203F3CFA2F0A10322
:1017A000F3CFA1F0F450A227390EA1271E0EA223D9
:1017B0009FC0F6FFA0C0F7FF020EF626000EF7222C
:1017C0000800F5CFA5F01ED0A3C0F6FFA4C0F7FF18
:1017D0000A0EF626000EF7220900F5CF10F00800D9
:1017E000F5CF11F004D011C0FAFF1050F96EFBDFF5
:1017F0000001A507A55102E150D004D0050EA15F5C
:10180000000EA25BA1C0F6FFA2C0F7FFF62A000EF1
:10181000F7220800F5CFA3F00001A46BA3BFA469D1
:101820000C0EA403F3CFA4F0A303F3CFA3F0F45062
:10183000A427AA0EA327280EA423A3C0F6FFA4C0A2
:10184000F7FF080EF626000EF7220900F5CF10F07C
:101850000800F5CF11F0A1C0F6FFA2C0F7FF020EFD
:10186000F626000EF7220900F5CFE6FF0900F5CFB6
:10187000E6FF0800F5CFE6FFA1C0F6FFA2C0F7FF24
:101880000800F550E66E04D011C0FAFF1050F96E52
:10189000FBDFE552E552E552E5521200000E000171
:1018A000E76EA519E8AE02D0A53503D0E750D88081
:1018B000A55516E2A3C0F6FFA4C0F7FF040EF62656
:1018C000000EF7220900F5CF10F00800F5CF11F057
:1018D000E66A04D011C0FAFF1050F96EFBDFE55242
:1018E00012000001300EB76F2A0EB86F1200D9CF68
:1018F000E6FFE1CFD9FF0001300EB76F2A0EB86FB7
:08190000E552E7CFD9FF120008
:08190800C80E0001706F716B45
:101910000001B45110E0B46B590EE66E290EE66E6C
:10192000B3C0E6FFB2C0E6FF2BEC09F0E552E5528A
:10193000E552E55239D0010EB46FAEC0F6FFAFC02C
:10194000F7FF0800F5CFF6FFF76AF6BEF768050E59
:10195000D890F636F736E806FBE1C80EF6261B0EE1
:10196000F722F6CF12F0F7CF13F0C7C014F0156AC4
:1019700014BE1568040ED89014361536E806FBE13F
:1019800012501424106E13501520116E10C0E6FF73
:1019900011C0E6FFB3C0E6FFB2C0E6FF2BEC09F0D2
:1019A000E552E552E552E5521200AEC0F6FFAFC077
:1019B000F7FFF62A000EF7220900F5CFE9FF08002D
:1019C000F5CFEAFFEF50E66E100E0001B325E66E8C
:1019D000B2C0E6FF61EC09F0E552E552E5521200B3
:1019E000AEC0F6FFAFC0F7FF0800F5CFF6FFF76A0D
:1019F000F6BEF768050ED890F636F736E806FBE136
:101A0000C80EF6261B0EF722F6CF12F0F7CF13F012
:101A1000C7C014F0156A14BE1568040ED8901436A9
:101A20001536E806FBE112501424106E13501520F1
:101A3000116E10C0E6FF11C0E6FFB3C0E6FFB2C0F2
:101A4000E6FF2BEC09F0E552E552E552E5521200B3
:101A5000AEC0F6FFAFC0F7FFF62A000EF72209006E
:101A6000F5CFE9FF0800F5CFEAFFEF2AD5EF0CF03C
:101A7000AEC0F6FFAFC0F7FFF62A000EF72209004E
:101A8000F5CFE9FF0800F5CFEAFFEF06D5EF0CF040
:101A900012001200B0C0F6FFB1C0F7FF040EF62628
:101AA000000EF7220900F5CF10F00800F5CF11F075
:101AB000E66804D011C0FAFF1050F96EFBDFE55262
:101AC000C80E0001706F716B1200010E0001706F83
:101AD000716BF0EF0CF0D9CFE6FFE1CFD9FFE55203
:101AE000E7CFD9FF1200010E0001706F716B120079
:101AF000D9CFE6FFE1CFD9FFFE0EDBCFB0F000017A
:101B0000B16BB0BFB1690C0EB103F3CFB1F0B0034C
:101B1000F3CFB0F0F450B127AA0EB027280EB123AE
:101B2000D4DF00010E0EB76F000EB86FE552E7CF9D
:101B3000D9FF1200D9CFE6FFE1CFD9FFFE0EDBCFF0
:101B4000AEF00001AF6BAEBFAF69090EAF03F3CFCC
:101B5000AFF0AE03F3CFAEF0F450AF27C80EAE2710
:101B60001D0EAF23FB0EDBCFB2F0FC0EDBCFB3F0CC
:101B7000C80E0001706F716BE552E7CFD9FF1200FC
:101B8000D9CFE6FFE1CFD9FFFE0EDBCFAEF00001EB
:101B9000AF6BAEBFAF69090EAF03F3CFAFF0AE03CB
:101BA000F3CFAEF0F450AF27C80EAE271D0EAF2313
:101BB000FB0EDBCFB2F0FC0EDBCFB3F011DFF5DEB6
:081BC000E552E7CFD9FF120046
:081BC8007777772E656D7068D8
:101BD000696C2E636F6D20007777772E656D706866
:101BE000696C2E636F6D2000696E666F40656D7065
:101BF00068696C2E636F6D00696E666F40656D700D
:101C000068696C2E636F6D0020207878782D616193
:101C10002E62622E6363200020207878782D616127
:101C20002E62622E63632000486F6D6520202020A5
:101C300020202020202020005072696E636970618E
:101C40006C6520202020200053657474696E6773D2
:101C500020412020202020005061726D657472693F
:101C6000204120202020200053657474696E677322
:101C700020422020202020005061726D657472691E
:101C80002042202020202000496E666F2020202046
:101C90002020202020202000496E666F2020202058
:101CA0002020202020202000536574706F696E3A38
:101CB0002020202020202000536574706F696E74EE
:101CC0002020202020202000536574706F696E74DE
:101CD000206D696E3A202000536574706F696E74D0
:101CE000206D696E3A202000536574706F696E74C0
:101CF000206D61783A202000536574706F696E74AE
:101D0000206D61783A20200044656C74613A20208F
:101D1000202020202020200044656C74613A20207F
:101D2000202020202020200054696D65206D696EE0
:101D3000757465733A20200054656D706F204D698D
:101D40006E7574693A20200054696D65207365636F
:101D50006F6E64733A20200054656D706F20536578
:101D6000636F6E64693A20004C616E6775616765E8
:101D700020202020202020004C696E6775612020E3
:101D8000202020202020200054656D706572617431
:101D90007572653A2020200054656D70657261741B
:101DA000757261202020200048756D69646974791E
:101DB0002020202020202000556D69646974612056
:101DC000202020202020200007A6007F00FF010007
:101DD0000008A7007F00FF01000009A8007F00FFA6
:101DE0000100000AA9007F00FF0100000BAA007F8C
:101DF00000FF0100000CAB007F00FF0100000DC7D9
:101E000000000001010000020004010403030006B9
:101E10000206020300020301040501000205060197
:101E2000010306070302000002010202020302048A
:101E30000205020003010306020102010000020183
:101E4000020100030102000000040200000104037B
:101E50000000020404000000000000000000000078
:0B1E6000000000000000000000000077
:051E6B003E3E3E3E3E3C
:101E70003E3E3E3E3E3E3E3E3E3E3E3E3E3E3E3E82
:101E80003E3E3E3E3E3E3E3E3E3E3E3E3E3E3E3E72
:101E90003E3E3E3E3E3E3E3E3E3E3E00010203048E
:101EA00005060708090A0B0C0D0E0F3E0A0B0C0D58
:101EB0000E0F101112131415161718191A1B1C1DCA
:101EC0001E1F202122233E3E3E3E3E3E2425262745
:101ED00028292A2B2C2D2E2F30313233343536370A
:101EE00038393A3B3C3D3F3F3F3F3FC1AEB6BAC1B8
:101EF000FFFFFFFFBD80BFFFFFFFFFBD9EAEB6B976
:101F0000FFFFFFDEBEBAB4CEFFFFFFE7EBED80EFD1
:101F1000FFFFFFD8BABABAC6FFFFFFC3B5B6B6CE49
:101F2000FFFFFFFEFE86FAFCFFFFFFC9B6B6B6C98B
:101F3000FFFFFFF9B6B6D6E1FFFFFF83EDEEED83BD
:101F4000FFFFFF80B6B6B6C9FFFFFFC1BEBEBEDD54
:101F5000FFFFFF80BEBEDDE3FFFFFF80B6B6BEBE63
:101F6000FFFFFF80F6F6FEFEFFFFFFC1BEAEAE8DA7
:101F7000FFFFFF80F7F7F780FFFFFFFFBE80BEFF88
:101F8000FFFFFFDFBFBEC0FEFFFFFF80F7EBDDBE40
:101F9000FFFFFF80BFBFBFBFFFFFFF80FDF3FD80DE
:101FA000FFFFFF80FBF7EF80FFFFFFC1BEBEBEC19A
:101FB000FFFFFF80F6F6F6F9FFFFFFC1BEAEDEA120
:101FC000FFFFFF80F6E6D6B9FFFFFFD9B6B6AEDD5C
:101FD000FFFFFFFEFE80FEFEFFFFFFC0BFBFBFC0D2
:101FE000FFFFFFE0DFBFDFE0FFFFFF80DFE7DF8015
:101FF000FFFFFF9CEBF7EB9CFFFFFFFCBB87BBFCED
:10200000FFFFFF9CAEB6BA9CFFFFFFDFABABAB8719
:10201000FFFFFFC0B7BBBBC7FFFFFFC7BBBBBBDF3B
:10202000FFFFFFC7BBBBB780FFFFFFC7ABABABF783
:10203000FFFFFFFFF781F6FDFFFFFFF7ABABABC381
:10204000FFFFFF80F7FBFB87FFFFFFFFBB82BFFFA8
:10205000FFFFFFDFBFBFC2FFFFFFFFFF80EFD7B96A
:10206000FFFFFFFFBE80BFFFFFFFFF83FB87FB87F4
:10207000FFFFFF83F7FBFB87FFFFFFC7BBBBBBC7B0
:10208000FFFFFF83EBEBEBF7FFFFFFF7EBEBEB83E0
:10209000FFFFFFFF83F7FBFBFFFFFFB7ABABABDB44
:1020A000FFFFFFFFFBC1BBDFFFFFFFC3BFBFDF833E
:1020B000FFFFFFE3DFBFDFE3FFFFFFC3BFCFBFC310
:1020C000FFFFFFBBDBC7B7BBFFFFFFBBB7CFEFF324
:1020D000FFFFFFBB9BABB3BBFFFFFFFFFFFFFFFF9C
:0B20E000FFFFFFF7F7C1F7F7FFFFFF5E
:0420EC00D9CFE6FF63
:1020F000E1CFD9FFE652DF6ADFCF10F0070EE76EBF
:102100001018E8AE02D0E73402D0E750105C1AE2B3
:10211000DFCFF6FFF76AF6BEF768D890F636F736E7
:10212000CC0EF626290EF7220900F5CF10F0080094
:10213000F5CF11F004D011C0FAFF1050F96EFBDF9B
:10214000DF2ADAD7E552E552E7CFD9FF1200D9CF1F
:10215000E6FFE1CFD9FF030EE126DF6ADFCF10F003
:10216000020EE76E1018E8AE02D0E73402D0E75056
:10217000105C01E38AD0010EDB6ADBCF10F0DFCF09
:10218000F6FFF76AF6BEF768050EF702F3CFF7FF22
:10219000F602F3CFF6FFF450F726C20EF626290E0C
:1021A000F722040EF626000EF7220800F550E76E1F
:1021B0001018E8AE02D0E73402D0E750105C63E2BA
:1021C000DFCFF6FFF76AF6BEF768050EF702F3CF2A
:1021D000F7FFF602F3CFF6FFF450F726C20EF6260D
:1021E000290EF7220900F5CF10F00800F5CF11F005
:1021F000010EDBCFE6FF04D011C0FAFF1050F96EDC
:10220000FBDFE552E76E020EE7CFDBFFDB50FF0896
:1022100037E0020EDBCF12F0136A12BE1368D890BB
:1022200012361336DFCFF6FFF76AF6BEF768050EF3
:10223000F702F3CFF7FFF602F3CFF6FFF450F726DD
:10224000C20EF626290EF722020EF626000EF722FF
:102250000900F5CFE9FF0800F5CFEAFF1250EE24A0
:10226000F66E1350EE20F76E0900F5CF10F008005F
:10227000F5CF11F004D011C0FAFF1050F96EFBDF5A
:10228000010EDB2A7AD7DF2A69D7030EE15C02E26E
:0E229000E16AE552E16EE552E7CFD9FF120098
:02229E00D9CF96
:1022A000E6FFE1CFD9FFE652DF6ADFCF10F0070E7D
:1022B000E76E1018E8AE02D0E73402D0E750105CA9
:1022C00010E2DFCFE9FFEA6AE9BEEA68D890E936B2
:1022D000EA36660EE926000EEA22EE6AED6ADF2A89
:1022E000E4D70001E80E606F030E616FE552E5521E
:1022F000E7CFD9FF1200D9CFE6FFE1CFD9FFE652F1
:10230000DF6ADFCF10F0070EE76E1018E8AE02D0DC
:10231000E73402D0E750105C29E2DFCFE9FFEA6A38
:10232000E9BEEA68D890E936EA36660EE926000E7C
:10233000EA22EECF10F0EFCF11F0113404E210508A
:102340000108000E115410E2DFCFE9FFEA6AE9BE8E
:10235000EA68D890E936EA36660EE926000EEA22E7
:10236000020EEE5E000EED5ADF2ACBD7000160515F
:10237000611105E10001622B000E632304D0020EFF
:10238000605F000E615BE552E552E7CFD9FF1200B6
:10239000D9CFE6FFE1CFD9FFFE0EDBCFE9FFEA6A36
:1023A000E9BEEA68D890E936EA36660EE926000EFC
:1023B000EA22EE50ED1004E1FE0EDB5003D002D015
:0C23C000FF0E00D0E552E7CFD9FF12005D
:0423CC003F0E0F01B0
:1023D0003917C00E93121F0E3A17E00E9412000127
:1023E000796B79C076F079C078F079C077F0120017
:1023F000D9CFE6FFE1CFD9FFE552E7CFD9FF1200F1
:10240000D9CFE6FFE1CFD9FFE652020E0001765D9B
:102410001FE1030E766F7751100A15E0180A10E0DD
:102420000C0A0BE0060A06E0030A02E0FF0E12D0D7
:10243000DF6A0CD0010EDF6E09D0020EDF6E06D00F
:10244000030EDF6E03D0040EDF6E00D0DF5002D02B
:10245000FF0E00D0E552E552E7CFD9FF120077C05A
:1024600078F0E00E8214E840E840E8401F0B0001DD
:10247000776F060E106EE00E811410C0E7FFE75272
:1024800004E0E8427F0BE706FCE100017727765184
:1024900008E1775106E0010E766F140E00016E6FB1
:1024A0006F6B0001760509E17851775D06E17751A0
:1024B00003E0020E766F01D0766B030E765D13E1BA
:1024C0007851775D05E1790502E1020E766F0BD058
:1024D000775107E0010E766F140E00016E6F6F6B7F
:0824E00002D0766B796B12004B
:0824E800030E92120F013813DC
:1024F000FC0E9416949094928B908B9227EC14F08F
:102500000001B96B00016A6B6B6B1200D9CFE6FF5B
:10251000E1CFD9FF020EE1260001B951020A35E0F0
:10252000030A21E0010A01E041D0E66A2EEC14F032
:10253000E552E76E010EE7CFDBFFE66E2EEC14F0FE
:10254000E552DF6EDF50F00809E20001010EB96FBD
:10255000040E00016A6F6B6B8B8004D0BAC074F0FC
:10256000BBC075F023D074C0BAF0E66A2EEC14F04C
:10257000E5520001746F8B908B82040E00016A6F2C
:102580006B6B0001020EB96F11D075C0BBF0010E6C
:10259000E66E2EEC14F0E5520001756F8B9200018F
:1025A000B96B040E00016A6F6B6B00D0020EE15C28
:1025B00002E2E16AE552E16EE552E7CFD9FF12008F
:1025C000D9CFE6FFE1CFD9FFE552E7CFD9FF12001F
:0225D0001200F7
:0E25D200DACFE4FFE2CFDAFFE9CFE4FFEACF91
:1025E000E4FFF6CFE4FFF7CFE4FFF5CFE4FFF3CF4E
:1025F000E4FFF4CFE4FFFACFE4FF00EE00F0100EAA
:10260000E80403E3EECFE4FFFBD700EE10F0060E84
:10261000E80403E3EECFE4FFFBD7E652F2A407D0D1
:10262000F294C10ED76E800ED66E7BEC11F0E5529F
:1026300000EE15F0060EE80403E3E5CFEDFFFBD74F
:1026400000EE0FF0100EE80403E3E5CFEDFFFBD73B
:10265000E5CFFAFFE5CFF4FFE5CFF3FFE5CFF5FFD8
:10266000E5CFF7FFE5CFF6FFE5CFEAFFE5CFE9FFDE
:10267000E5CFDAFF1100DACFE4FFE2CFDAFFE6526E
:10268000E552E5CFDAFF1100C10ED76E800ED66E8F
:10269000D59CD586F80ED5140009D56ED59AF28A48
:0426A000F28E1200A4
:0C26A4001E0EF66E000EF76E000EF86EB3
:1026B00000010900F550996F0900F5509A6F03E188
:1026C000996701D03DD00900F550946F0900F5508D
:1026D000956F0900F550966F09000900F550E96EF5
:1026E0000900F550EA6E090009000900F550976FDE
:1026F0000900F550986F09000900F6CF9BF0F7CF5D
:102700009CF0F8CF9DF094C0F6FF95C0F7FF96C0FF
:10271000F8FF0001975302E1985307E00900F550D4
:10272000EE6E9707F8E29807F9D79BC0F6FF9CC0BA
:10273000F7FF9DC0F8FF00019907000E9A5BBFD715
:02274000120085
:0E2742001200D9CFE6FFE1CFD9FFE552E7CF75
:10275000D9FF1200D9CFE6FFE1CFD9FFE552E7CF8D
:10276000D9FF1200D9CFE6FFE1CFD9FFE652000131
:10277000C76BDF6ADFCF10F0050EE76E1018E8AE0A
:1027800002D0E73402D0E750105C20E2DFCFF6FF42
:10279000F76AF6BEF7680C0EF702F3CFF7FFF60202
:1027A000F3CFF6FFF450F726AA0EF626280EF722EE
:1027B0000900F5CF10F00800F5CF11F004D011C0DA
:1027C000FAFF1050F96EFBDFDF2AD4D7E66A48EC37
:0E27D0000AF0E552E552E552E7CFD9FF1200BC
:0227DE00D9CF51
:1027E000E6FFE1CFD9FF150EE126440E106E290E4B
:1027F000116E126A10C0E6FF11C0E6FF12C0E6FFBC
:10280000D9CFE6FFDACFE6FF73EC14F0136E050EB6
:10281000E15E1350D9CFE6FFDACFE6FFE66A010E9C
:10282000E66EF7EC08F0E552E552E552E552150E7A
:10283000E15C02E2E16AE552E16EE552E7CFD9FFE1
:0E28400012000A0E0001666F676B1200120094
:02284E00C08048
:10285000C09E300EC012C2809E9C1200D9CFE6FFEF
:10286000E1CFD9FFE652C250DF6E000EDB94DB965B
:10287000DB98DB9ADB9CFE0EDBCFE9FFEA6AE9BE60
:10288000EA68C20EE926000EEA22EF50DF12DF509E
:10289000C26EC282C2A202D00000FCD7C45000D0D7
:0A28A000E552E552E7CFD9FF120020
:0628AA00E2189014EE1884
:1028B000542754274227F80644271E077008120899
:1028C0000207E61AD61AF01A801B341BCA1A4227CE
:1028D0004427442754275427422742274427442784
:0628E00054275427422793
:0A28E600FB0EE3CFF6FFFC0EE3CF7C
:1028F000F7FFFD0EE3CFF8FFFE0EE3CFE9FFFF0E7B
:10290000E3CFEAFFE9CFF3FFEACFF4FF0900F5CF09
:08291000EFFFEE66FBD7120099
:082918004803280328055003C1
:102920003003300550A030A03084920198019E0100
:10293000440046004C0052009001E4062604E405E1
:042940000405E006A4
:0C2944005465737420465720766572209D
:102950003020383100200078002020202020202046
:092960002020202020202020006E
:06296A00000EF36E00EE0A
:1029700000F0060E01D81200EA6002D0EE6AFCD721
:0A298000F350E9601200EE6AFCD784
:06298A0015EE00F025EE41
:1029900000F0F86A0F9C52EC13F003EC00F012EC1C
:0629A00015F0FBD7120048
:0A29A600036A080EE76ED8900736AA
:1029B00003360C50035C02E3036E072AE72EF7D7B9
:0229C000120003
:0E29C2009023B500070024B700019E22CC230D
:0A29D000022A882646106427DE273D
:0629DA001200D9CFE6FF58
:0E29E000E1CFD9FFE552E7CFD9FF1200120078
:0229EE001200D5
:1029F000D9CFE6FFE1CFD9FFE552E7CFD9FF1200EB
:022A00001200C2
:0E2A0200F00E9216956A0F013B6B8016836AE8
:062A1000CC0E836E1200E3
:0A2A160042284C283A2A3A2A5E248E
:042A200008199209F6
:0C2A240076EC10F0A7EC10F0FDD71200CB
:0A2A30008E14FC159C185C178E1420
:022A3A00120088
:042A3C000EAC0001DB
:082A400000000FAD00010000D1
:032A480000041C6B
:042A4B00162A302AED
:00000001FF
